:100000000C9463000C948B000C948B000C948B006C
:100010000C948B000C948B000C948B000C948B0034
:100020000C948B000C948B000C948B000C948B0024
:100030000C948B000C948B000C948B000C948B0014
:100040000C94BC000C948B000C9499010C94E0016E
:100050000C948B000C948B000C948B000C948B00F4
:100060000C94FD040C948B00000000002400270079
:100070002A0000000000250028002B0000000000DE
:1000800023002600290004040404040404040202DA
:100090000202020203030303030301020408102007
:1000A0004080010204081020010204081020000012
:1000B0000007000201000003040600000000000029
:1000C00000005703180411241FBECFEFD8E0DEBF95
:1000D000CDBF11E0A0E0B1E0ECE6FEE002C005908B
:1000E0000D92A032B107D9F712E0A0E2B1E001C051
:1000F0001D92AD38B107E1F710E0C6ECD0E004C0C6
:100100002297FE010E943007C23CD107C9F70E9426
:10011000D9030C948D000C940000F8940C943407CF
:1001200085E192E062E070E046E050E00E949D04CC
:1001300009C085E192E00E94F103682F81EB91E014
:100140000E94D10385E192E00E94E803892B89F7A0
:1001500064EF71E080E090E00E940401089585E181
:1001600092E00E94A00481EB91E040E855E260E05B
:1001700070E00E94290208951F920F920FB60F920D
:1001800011242F933F938F939F93AF93BF938091AD
:10019000240190912501A0912601B0912701309171
:1001A00028010196A11DB11D232F2D5F2D3720F0B1
:1001B0002D570196A11DB11D209328018093240184
:1001C00090932501A0932601B093270180912001EF
:1001D00090912101A0912201B09123010196A11DCE
:1001E000B11D8093200190932101A0932201B0932F
:1001F0002301BF91AF919F918F913F912F910F90CC
:100200000FBE0F901F9018959B01AC017FB7F8941B
:100210008091200190912101A0912201B0912301B0
:1002200066B5A89B05C06F3F19F00196A11DB11DD1
:100230007FBFBA2FA92F982F8827860F911DA11D48
:10024000B11D62E0880F991FAA1FBB1F6A95D1F7E5
:10025000BC012DC0FFB7F89480912001909121013D
:10026000A0912201B0912301E6B5A89B05C0EF3F04
:1002700019F00196A11DB11DFFBFBA2FA92F982F0C
:1002800088278E0F911DA11DB11DE2E0880F991FD7
:10029000AA1FBB1FEA95D1F7861B970B885E934078
:1002A000C8F2215030404040504068517C4F2115E9
:1002B00031054105510571F60895789484B5826041
:1002C00084BD84B5816084BD85B5826085BD85B5FA
:1002D000816085BDEEE6F0E0808181608083E1E8A9
:1002E000F0E01082808182608083808181608083E1
:1002F000E0E8F0E0808181608083E1EBF0E08081E4
:1003000084608083E0EBF0E0808181608083EAE7B5
:10031000F0E080818460808380818260808380813E
:10032000816080838081806880831092C1000895FD
:1003300008951F920F920FB60F9211242F933F939F
:100340004F938F939F93EF93FF934091C60020911B
:10035000690130916A012F5F3F4F2F733070809198
:100360006B0190916C012817390759F0E0916901F0
:10037000F0916A01E75DFE4F408330936A0120935C
:100380006901FF91EF919F918F914F913F912F9133
:100390000F900FBE0F901F901895E091BD01F09146
:1003A000BE01E05CFF4F8191919120813181821BE0
:1003B000930B8F739070892B11F00E949801089510
:1003C0001F920F920FB60F9211242F933F934F93CA
:1003D0005F936F937F938F939F93AF93BF93EF93AD
:1003E000FF932091AD013091AE018091AF019091CA
:1003F000B0012817390731F48091C1008F7D8093B7
:10040000C10016C0E091AF01F091B001E359FE4F79
:1004100040818091AF019091B001019660E470E05D
:100420000E94F9069093B0018093AF014093C600FB
:10043000FF91EF91BF91AF919F918F917F916F91BC
:100440005F914F913F912F910F900FBE0F901F9092
:100450001895AF92BF92DF92EF92FF920F931F9386
:10046000CF93DF93EC017A018B01DD24403081EEE4
:10047000580780E0680780E0780711F0DD24D39406
:1004800091E0A92EB12CEC89FD89DD2069F0C50130
:100490000E8C02C0880F991F0A94E2F7808360E0F7
:1004A00079E08DE390E005C0108260E874E88EE1A9
:1004B00090E0A80197010E940C0721503040404075
:1004C0005040569547953795279580E1203038075D
:1004D00020F0DD2011F0DD24D6CFE889F9893083C2
:1004E000EA89FB892083EE89FF89408121E030E0A1
:1004F000C9010A8C02C0880F991F0A94E2F7482BA1
:100500004083EE89FF894081C9010B8C02C0880FAE
:10051000991F0A94E2F7482B4083EE89FF894081B6
:10052000C9010C8C02C0880F991F0A94E2F7482B6E
:100530004083EE89FF8980810D8C02C0220F331F1A
:100540000A94E2F7209528232083DF91CF911F9111
:100550000F91FF90EF90DF90BF90AF900895DC0176
:100560001C96ED91FC911D97E05CFF4F219131911C
:1005700080819181281B390B2F733070C901089538
:10058000DC011C96ED91FC911D97E05CFF4F2081F2
:100590003181E054F040DF01AE5BBF4F8D919C9103
:1005A00011972817390719F42FEF3FEF07C08D91E6
:1005B0009C91E80FF91F8081282F30E0C901089530
:1005C000DC011C96ED91FC911D97E05CFF4F2081B2
:1005D0003181E054F040DF01AE5BBF4F8D919C91C3
:1005E00011972817390719F42FEF3FEF10C08D919D
:1005F0009C911197E80FF91F20818D919C91119783
:1006000001968F73907011969C938E9330E0C90180
:100610000895FC0186859785DC01A05CBF4FFC0135
:10062000EE5BFF4F2D913C911197808191812817AE
:100630003907C1F70895CF93DF93EC01462FEE857C
:10064000FF85E05CFF4F80819181E054F04001968E
:1006500060E470E00E94F9069C01DF01AE5BBF4FD1
:100660008D919C91119728173907D1F3E05CFF4FCA
:1006700080819181E054F040E80FF91F4083EE85BE
:10068000FF85E05CFF4F31832083EE89FF89208165
:1006900081E090E00D8C02C0880F991F0A94E2F768
:1006A000282B208381E090E0DF91CF910895109274
:1006B000B4011092B30188EE93E0A0E0B0E0809323
:1006C000B5019093B601A093B701B093B80184E04F
:1006D00091E09093B2018093B10189E291E090930F
:1006E000BE018093BD018DE691E09093C00180939F
:1006F000BF0185EC90E09093C2018093C10184EC2E
:1007000090E09093C4018093C30180EC90E09093BB
:10071000C6018093C50181EC90E09093C80180935D
:10072000C70186EC90E09093CA018093C90184E0F0
:100730008093CB0183E08093CC0187E08093CD014F
:1007400085E08093CE0181E08093CF010895CF9220
:10075000DF92EF92FF920F931F93CF93DF937C0171
:100760006B018A01C0E0D0E00FC0D6016D916D0130
:10077000D701ED91FC910190F081E02DC701099521
:10078000C80FD91F015010400115110571F7CE0196
:10079000DF91CF911F910F91FF90EF90DF90CF905D
:1007A0000895DC01ED91FC910190F081E02D099517
:1007B0000895CF93DF930E945D010E94AF00CDECBE
:1007C000D1E00E9490002097E1F30E94CD01F9CF83
:1007D0002091F10130E08091F001281B3109C9011D
:1007E00008954091F0018091F101481718F02FEF22
:1007F0003FEF0AC0E42FF0E0E053FE4F8081282F46
:1008000030E04F5F4093F001C9010895E091F0019D
:100810008091F101E81718F0EFEFFFEF06C0F0E06C
:10082000E053FE4F8081E82FF0E0CF010895089556
:10083000109218021092170288EE93E0A0E0B0E048
:100840008093190290931A02A0931B02B0931C028A
:1008500084E191E090931602809315020895CF925F
:10086000DF92EF92FF920F931F93CF93DF937C0160
:100870006B018A01809114028823A1F0C0E0D0E0CE
:100880000DC0D701ED91FC91D601AC0FBD1F0190B9
:10089000F081E02DC7016C9109952196C017D10711
:1008A00080F304C0CB01642F0E94E204C801DF91F1
:1008B000CF911F910F91FF90EF90DF90CF9008950F
:1008C000DF93CF930F92CDB7DEB7FC0169838091A0
:1008D00014028823C9F080911302803238F081E03D
:1008E00090E09383828320E030E015C08091120273
:1008F000E82FF0E0EE50FE4F998190838F5F809358
:1009000012028093130205C0CE01019661E00E949D
:10091000E20421E030E0C9010F90CF91DF9108950A
:10092000413208F040E2862F60ED71E00E94AB0496
:100930001092F0018093F10108950E9490040895AF
:100940001092F0011092F101109212021092130213
:100950000E9478060895982F413210F040E030C090
:10096000809121028823E1F781E0809321028FEFBB
:1009700080938C02109247024150409348024F5F8F
:10098000990F91609093220285EE8093BC00809134
:1009900021028130E1F380914702841710F44091E5
:1009A000470220E030E00AC0FB01E20FF31FD9014B
:1009B000A95DBD4F8C9180832F5F3F4F2417A0F31B
:1009C000842F0895482F613210F081E008958091BE
:1009D0002102843011F082E0089560936A02A9E454
:1009E000B2E0842F9C01F90102C081918D938E2F7A
:1009F000841B8617D0F380E008951F920F920FB6E4
:100A00000F9211242F933F934F935F936F937F9394
:100A10008F939F93AF93BF93EF93FF938091B90010
:100A200090E0887F90708036910509F4DCC08136B3
:100A30009105CCF58832910509F47BC08932910586
:100A4000B4F48031910509F46FC0813191053CF413
:100A5000009709F431C1089709F039C165C08831A0
:100A6000910509F466C0809709F031C17DC08034DA
:100A7000910509F49FC08134910544F480339105B8
:100A800009F47DC0C89709F022C184C08035910562
:100A900009F484C08835910509F491C08834910522
:100AA00009F015C198C08839910509F4FDC089394C
:100AB0009105ECF48837910509F495C089379105C3
:100AC0004CF48836910509F48EC08037910509F001
:100AD000FEC089C08838910509F4E6C080399105C7
:100AE00009F487C08038910509F0F1C082C0803BCD
:100AF000910509F4B0C0813B91054CF4803A910511
:100B000009F489C0883A910509F0E1C0A4C0803C8D
:100B1000910509F4CDC0883C910509F4C9C0883B12
:100B2000910509F0D4C0ACC0809122028093BB0033
:100B3000B9C09091470280914802981768F490914B
:100B40004702E92FF0E0E95DFD4F80818093BB0013
:100B50009F5F90934702A6C085ED8093BC00809173
:100B6000BC0084FDFCCFB1C080E280938C0285ED97
:100B70008093BC008091BC0084FDFCCFA6C080E3C4
:100B800080938C0285ED8093BC008091BC0084FD35
:100B9000FCCF9BC088E380938C028AC0809147027F
:100BA0009091BB00E82FF0E0E95DFD4F90838F5FEF
:100BB00080934702909147028091480271C08091D2
:100BC00047029091BB00E82FF0E0E95DFD4F908374
:100BD0008F5F8093470285ED8093BC008091BC00BD
:100BE00084FDFCCF72C083E08093210210928B02BF
:100BF00059C080918B02803208F056C080918B02E0
:100C00009091BB00E82FF0E0E559FD4F90838F5F96
:100C100080938B0247C080918B02803230F4E09148
:100C20008B02F0E0E559FD4F108285ED8093BC000A
:100C30008091BC0084FDFCCF1092210260918B0258
:100C4000E0912502F09126028BE692E070E0099592
:100C500010928B022DC084E08093210210926902D1
:100C600010926A02E0912302F0912402099580918A
:100C70006A02882329F481E080936A021092490273
:100C800090916902E92FF0E0E75BFD4F808180934E
:100C9000BB009F5F909369029091690280916A0204
:100CA000981710F485EC01C085E88093BC000FC054
:100CB00085EC8093BC0009C010928C0285ED809376
:100CC000BC008091BC0084FDFCCF10922102FF91FA
:100CD000EF91BF91AF919F918F917F916F915F91B4
:100CE0004F913F912F910F900FBE0F901F9018952D
:100CF0001092210282E161E00E94910683E161E0AD
:100D00000E949106E9EBF0E080818E7F80838081F4
:100D10008D7F808388E48093B80085E48093BC0055
:100D20000895482F50E0CA0182559F4FFC0124913D
:100D3000CA0186569F4FFC0194914A575F4FFA01B2
:100D40003491332309F440C0222351F1233071F050
:100D5000243028F42130A1F0223011F514C02630BF
:100D6000B1F02730C1F02430D9F404C08091800064
:100D70008F7703C0809180008F7D8093800010C0AA
:100D800084B58F7702C084B58F7D84BD09C0809102
:100D9000B0008F7703C08091B0008F7D8093B0004A
:100DA000E32FF0E0EE0FFF1FEE58FF4FA591B49137
:100DB0002FB7F894662321F48C919095892302C073
:100DC0008C91892B8C932FBF0895AA1BBB1B51E1DB
:100DD00007C0AA1FBB1FA617B70710F0A61BB70BAB
:100DE000881F991F5A95A9F780959095BC01CD0150
:100DF000089597FB092E07260AD077FD04D0E5DF7A
:100E000006D000201AF4709561957F4F0895F6F78B
:100E1000909581959F4F0895A1E21A2EAA1BBB1BA6
:100E2000FD010DC0AA1FBB1FEE1FFF1FA217B307B6
:100E3000E407F50720F0A21BB30BE40BF50B661FCC
:100E4000771F881F991F1A9469F760957095809590
:100E500090959B01AC01BD01CF010895EE0FFF1FDE
:0C0E60000590F491E02D0994F894FFCF68
:100E6C00000000001B03A703AF02E002C00209034D
:100E7C000000000060042F04E803F10306041704CB
:00000001FF
