:100000000C9461000C947E000C947E000C947E0095
:100010000C947E000C947E000C947E000C947E0068
:100020000C947E000C947E000C947E000C947E0058
:100030000C947E000C947E000C947E000C947E0048
:100040000C94B1000C947E000C947E000C947E0005
:100050000C947E000C947E000C947E000C947E0028
:100060000C947E000C947E00000000002400270009
:100070002A0000000000250028002B0000000000DE
:1000800023002600290004040404040404040202DA
:100090000202020203030303030301020408102007
:1000A0004080010204081020010204081020000012
:1000B0000007000201000003040600000000000029
:1000C000000011241FBECFEFD8E0DEBFCDBF11E08E
:1000D000A0E0B1E0E0EFF4E002C005900D92A230A4
:1000E000B107D9F711E0A2E0B1E001C01D92AD3037
:1000F000B107E1F70E9467020C9480000C940000A5
:10010000F8940C947602609102017091030189E0E9
:100110000E948D0120910001309101018091020126
:1001200090910301820F931F90930301809302012A
:10013000009719F08F3F910541F488279927821B7A
:10014000930B90930101809300016EE170E080E0D9
:1001500090E00E94F900089589E061E00E94ED01BD
:1001600008951F920F920FB60F9211242F933F9371
:100170008F939F93AF93BF93809108019091090152
:10018000A0910A01B0910B0130910C010196A11DC3
:10019000B11D232F2D5F2D3720F02D570196A11D66
:1001A000B11D20930C018093080190930901A09345
:1001B0000A01B0930B018091040190910501A09177
:1001C0000601B09107010196A11DB11D80930401A4
:1001D00090930501A0930601B0930701BF91AF91E1
:1001E0009F918F913F912F910F900FBE0F901F9075
:1001F00018959B01AC017FB7F89480910401909110
:100200000501A0910601B091070166B5A89B05C044
:100210006F3F19F00196A11DB11D7FBFBA2FA92F05
:10022000982F8827860F911DA11DB11D62E0880FB0
:10023000991FAA1FBB1F6A95D1F7BC012DC0FFB73C
:10024000F8948091040190910501A0910601B0916C
:100250000701E6B5A89B05C0EF3F19F00196A11D67
:10026000B11DFFBFBA2FA92F982F88278E0F911D80
:10027000A11DB11DE2E0880F991FAA1FBB1FEA95BF
:10028000D1F7861B970B885E9340C8F2215030400F
:100290004040504068517C4F2115310541055105C2
:1002A00071F60895789484B5826084BD84B58160C8
:1002B00084BD85B5826085BD85B5816085BDEEE66E
:1002C000F0E0808181608083E1E8F0E0108280814D
:1002D00082608083808181608083E0E8F0E08081BB
:1002E00081608083E1EBF0E0808184608083E0EBDB
:1002F000F0E0808181608083EAE7F0E080818460C3
:10030000808380818260808380818160808380811E
:10031000806880831092C10008951F93CF93DF936C
:10032000182FEB0161E00E94ED01209709F44AC00B
:10033000CF3FD10509F449C0E12FF0E0E255FF4F6E
:1003400084918330C1F0843028F4813051F08230C0
:10035000B1F50CC0863019F1873049F1843079F558
:1003600014C084B5806884BDC7BD33C084B58062C5
:1003700084BDC8BD2EC080918000806880938000BD
:10038000D0938900C093880024C08091800080624F
:1003900080938000D0938B00C0938A001AC0809114
:1003A000B00080688093B000C093B30012C0809109
:1003B000B00080628093B000C093B4000AC0C0381F
:1003C000D1051CF4812F60E002C0812F61E00E9402
:1003D0001302DF91CF911F910895482F50E0CA0179
:1003E00086569F4FFC0124914A575F4FFA01849132
:1003F0008823C1F0E82FF0E0EE0FFF1FE859FF4F10
:10040000A591B491662341F49FB7F8948C912095FF
:1004100082238C939FBF08959FB7F8948C91822B71
:100420008C939FBF0895482F50E0CA0182559F4F7B
:10043000FC012491CA0186569F4FFC0194914A57B2
:100440005F4FFA013491332309F440C0222351F164
:10045000233071F0243028F42130A1F0223011F53E
:1004600014C02630B1F02730C1F02430D9F404C0D4
:10047000809180008F7703C0809180008F7D809372
:10048000800010C084B58F7702C084B58F7D84BD95
:1004900009C08091B0008F7703C08091B0008F7D3C
:1004A0008093B000E32FF0E0EE0FFF1FEE58FF4FF8
:1004B000A591B4912FB7F894662321F48C9190956F
:1004C000892302C08C91892B8C932FBF0895CF93E1
:1004D000DF930E9452010E94AC00C0E0D0E00E9475
:1004E00083002097E1F30E940000F9CFF894FFCF3A
:0204F000050005
:00000001FF
